:100000000C942A000C9434000C9434000C943400AA
:100010000C9434000C9434000C9434000C94340090
:100020000C9434000C9434000C9434000C94340080
:100030000C9434000C9434000C9434000C94340070
:100040000C9434000C9434000C9434000C94340060
:100050000C94340011241FBECFE5D8E0DEBFCDBF25
:100060000E9427050C9432050C940000DF93CF9377
:10007000CDB7DEB7EAE3F0E08FEF8083E7E3F0E0AF
:100080008FEF8083E4E3F0E08FEF8083E1E3F0E043
:100090008FEF8083EBE3F0E08FEF8083E8E3F0E025
:1000A0008FEF8083E5E3F0E08FEF8083E2E3F0E021
:1000B0008FEF8083CF91DF910895DF93CF9300D0AE
:1000C00000D000D0CDB7DEB78A836B834C8381E04C
:1000D00089838B81883008F091C18A81843008F04F
:1000E0008DC18C81833008F089C18A81282F30E04E
:1000F0003E832D838D819E818130910509F471C0ED
:100100002D813E81223031052CF48D819E81009716
:1001100071F075C12D813E812230310509F4BBC0DB
:100120008D819E818330910509F40FC168C18C8156
:100130008823A1F4AAE3B0E0EAE3F0E08081482F4D
:100140008B81282F30E081E090E0022E02C0880FE2
:10015000991F0A94E2F7842B8C9351C18C818130D2
:10016000A9F4AAE3B0E0EAE3F0E08081482F8B81B4
:10017000282F30E081E090E0022E02C0880F991F06
:100180000A94E2F7809584238C9339C18C81823064
:1001900009F035C1AAE3B0E0EAE3F0E08081482F3E
:1001A0008B81282F30E081E090E002C0880F991FFA
:1001B0002A95E2F7809584238C93ABE3B0E0EBE3E0
:1001C000F0E08081482F8B81282F30E081E090E0A3
:1001D000022E02C0880F991F0A94E2F7842B8C9399
:1001E0000EC18C818823A1F4A7E3B0E0E7E3F0E03F
:1001F0008081482F8B81282F30E081E090E0022E13
:1002000002C0880F991F0A94E2F7842B8C93F7C0E1
:100210008C818130A9F4A7E3B0E0E7E3F0E08081CE
:10022000482F8B81282F30E081E090E0022E02C021
:10023000880F991F0A94E2F7809584238C93DFC07E
:100240008C81823009F0DBC0A7E3B0E0E7E3F0E0A7
:100250008081482F8B81282F30E081E090E002C020
:10026000880F991F2A95E2F7809584238C93A8E341
:10027000B0E0E8E3F0E08081482F8B81282F30E068
:1002800081E090E0022E02C0880F991F0A94E2F7E5
:10029000842B8C93B4C08C818823A1F4A4E3B0E0B8
:1002A000E4E3F0E08081482F8B81282F30E081E06B
:1002B00090E0022E02C0880F991F0A94E2F7842B67
:1002C0008C939DC08C818130A9F4A4E3B0E0E4E379
:1002D000F0E08081482F8B81282F30E081E090E092
:1002E000022E02C0880F991F0A94E2F7809584239A
:1002F0008C9385C08C81823009F081C0A4E3B0E08A
:10030000E4E3F0E08081482F8B81282F30E081E00A
:1003100090E002C0880F991F2A95E2F78095842308
:100320008C93A5E3B0E0E5E3F0E08081482F8B817A
:10033000282F30E081E090E0022E02C0880F991F44
:100340000A94E2F7842B8C935AC08C818823A1F401
:10035000A1E3B0E0E1E3F0E08081482F8B81282F1A
:1003600030E081E090E0022E02C0880F991F0A94CD
:10037000E2F7842B8C9343C08C818130A9F4A1E3F4
:10038000B0E0E1E3F0E08081482F8B81282F30E05E
:1003900081E090E0022E02C0880F991F0A94E2F7D4
:1003A000809584238C932BC08C81823041F5A1E30E
:1003B000B0E0E1E3F0E08081482F8B81282F30E02E
:1003C00081E090E002C0880F991F2A95E2F780959E
:1003D00084238C93A2E3B0E0E2E3F0E08081482F35
:1003E0008B81282F30E081E090E0022E02C0880F40
:1003F000991F0A94E2F7842B8C9301C0198289819A
:1004000026960FB6F894DEBF0FBECDBFCF91DF9119
:100410000895DF93CF9300D000D00F92CDB7DEB711
:100420008A836B8381E089838A81843008F090C05D
:100430008B81833008F08CC08A81282F30E03D8387
:100440002C838C819D818130910589F12C813D81A6
:10045000223031052CF48C819D81009769F076C0A3
:100460002C813D8122303105E9F18C819D818330E1
:10047000910509F451C06AC08B81882329F4EAE30D
:10048000F0E08FEF808365C08B81813021F4EAE357
:10049000F0E010825EC08B81823009F05AC0EAE33E
:1004A000F0E01082EBE3F0E08FEF808352C08B81AD
:1004B000882329F4E7E3F0E08FEF80834AC08B8143
:1004C000813021F4E7E3F0E0108243C08B81823079
:1004D00009F03FC0E7E3F0E01082E8E3F0E08FEFDF
:1004E000808337C08B81882329F4E4E3F0E08FEF29
:1004F00080832FC08B81813021F4E4E3F0E010820F
:1005000028C08B81823029F5E4E3F0E01082E5E336
:10051000F0E08FEF80831DC08B81882329F4E1E315
:10052000F0E08FEF808315C08B81813021F4E1E30F
:10053000F0E010820EC08B81823059F4E1E3F0E0EC
:100540001082E2E3F0E08FEF808303C0198201C0E4
:10055000198289810F900F900F900F900F90CF917B
:10056000DF910895DF93CF9300D000D000D0CDB7B6
:10057000DEB78A836B834C8381E089838A818430F0
:1005800008F0EBC08B81883008F0E7C08C818230A6
:1005900008F0E3C08A81282F30E03E832D838D81CF
:1005A0009E818130910509F447C02D813E81223022
:1005B00031052CF48D819E81009771F0CCC02D8186
:1005C0003E812230310509F467C08D819E818330E0
:1005D000910509F491C0BFC08C818130A1F4ABE3D7
:1005E000B0E0EBE3F0E08081482F8B81282F30E0F2
:1005F00081E090E0022E02C0880F991F0A94E2F772
:10060000842B8C93ABC08C81882309F0A7C0ABE30B
:10061000B0E0EBE3F0E08081482F8B81282F30E0C1
:1006200081E090E0022E02C0880F991F0A94E2F741
:10063000809584238C9392C08C818130A1F4A8E3AF
:10064000B0E0E8E3F0E08081482F8B81282F30E094
:1006500081E090E0022E02C0880F991F0A94E2F711
:10066000842B8C937BC08C81882309F077C0A8E30E
:10067000B0E0E8E3F0E08081482F8B81282F30E064
:1006800081E090E0022E02C0880F991F0A94E2F7E1
:10069000809584238C9362C08C818130A1F4A5E382
:1006A000B0E0E5E3F0E08081482F8B81282F30E037
:1006B00081E090E0022E02C0880F991F0A94E2F7B1
:1006C000842B8C934BC08C81882309F047C0A5E311
:1006D000B0E0E5E3F0E08081482F8B81282F30E007
:1006E00081E090E0022E02C0880F991F0A94E2F781
:1006F000809584238C9332C08C818130A1F4A2E355
:10070000B0E0E2E3F0E08081482F8B81282F30E0D9
:1007100081E090E0022E02C0880F991F0A94E2F750
:10072000842B8C931BC08C818823C1F4A2E3B0E09E
:10073000E2E3F0E08081482F8B81282F30E081E0D8
:1007400090E0022E02C0880F991F0A94E2F780956C
:1007500084238C9303C0198201C019828981269653
:100760000FB6F894DEBF0FBECDBFCF91DF910895D5
:10077000DF93CF9300D000D00F92CDB7DEB78A833E
:100780006B8381E089838A81843008F061C08B812A
:10079000813009F05DC08A81282F30E03D832C83B1
:1007A0008C819D818130910521F12C813D81223008
:1007B00031052CF48C819D81009761F047C02C811C
:1007C0003D812230310521F18C819D81833091055D
:1007D00071F13CC08B81813029F4EBE3F0E08FEFC5
:1007E000808337C08B818823A1F5EBE3F0E0108292
:1007F00030C08B81813029F4E8E3F0E08FEF808313
:1008000028C08B81882329F5E8E3F0E0108221C01D
:100810008B81813029F4E5E3F0E08FEF808319C00C
:100820008B818823B1F4E5E3F0E0108212C08B8164
:10083000813029F4E2E3F0E08FEF80830AC08B81FE
:10084000882339F4E2E3F0E0108203C0198201C08A
:10085000198289810F900F900F900F900F90CF9178
:10086000DF910895DF93CF93CDB7DEB727970FB60B
:10087000F894DEBF0FBECDBF8A836B835D834C834C
:1008800081E089838A81843008F07CC08B81883044
:1008900008F078C08C819D81009709F473C08A812B
:1008A000282F30E03F832E834E815F8141305105F8
:1008B00059F18E819F818230910534F42E813F81E0
:1008C0002115310569F05CC04E815F8142305105D0
:1008D00079F18E819F818330910509F43DC050C02C
:1008E000E9E3F0E08081282F30E08B81882F90E0D1
:1008F000A90102C0559547958A95E2F7CA01817012
:10090000EC81FD8180833FC0E6E3F0E08081282F09
:1009100030E08B81882F90E0A90102C05595479562
:100920008A95E2F7CA018170EC81FD8180832BC03A
:10093000E3E3F0E08081282F30E08B81882F90E086
:10094000A90102C0559547958A95E2F7CA018170C1
:10095000EC81FD81808317C0E0E3F0E08081282FE7
:1009600030E08B81882F90E0A90102C05595479512
:100970008A95E2F7CA018170EC81FD81808303C012
:10098000198201C01982898127960FB6F894DEBFBB
:100990000FBECDBFCF91DF910895DF93CF9300D0ED
:1009A00000D000D0CDB7DEB78A837C836B8381E033
:1009B00089838A81843008F040C08B819C810097B4
:1009C000E1F18A81282F30E03E832D838D819E8145
:1009D00081309105E1F02D813E81223031052CF4EA
:1009E0008D819E81009761F027C02D813E8122304C
:1009F0003105A1F08D819E8183309105B1F01CC03D
:100A0000E9E3F0E08081EB81FC81808316C0E6E3BE
:100A1000F0E08081EB81FC8180830FC0E3E3F0E0B4
:100A20008081EB81FC81808308C0E0E3F0E080817D
:100A3000EB81FC81808301C01982898126960FB6E3
:100A4000F894DEBF0FBECDBFCF91DF910895DF9345
:100A5000CF9300D000D0CDB7DEB79A8389837C8353
:080A60006B83FFCFF894FFCF78
:00000001FF
