:100000000C942A000C9434000C9434000C943400AA
:100010000C9434000C9434000C9434000C94340090
:100020000C9434000C9434000C9434000C94340080
:100030000C9434000C9434000C9434000C94340070
:100040000C9434000C9434000C9434000C94340060
:100050000C94340011241FBECFE5D8E0DEBFCDBF25
:100060000E9436000C9429050C940000DF93CF9376
:1000700000D000D0CDB7DEB79A8389837C836B83B1
:1000800080E090E00F900F900F900F90CF91DF9154
:100090000895DF93CF9300D000D000D0CDB7DEB766
:1000A0008A836B834C8381E089838B81883008F05D
:1000B00097C18A81843008F093C18C81833008F025
:1000C0008FC18A81282F30E03E832D838D819E81D0
:1000D0008130910509F472C02D813E8122303105B5
:1000E0002CF48D819E81009771F079C12D813E8124
:1000F0002230310509F4BDC08D819E818330910588
:1001000009F412C16CC18C818823A1F4AAE3B0E088
:10011000EAE3F0E08081482F8B81282F30E081E0F6
:1001200090E0022E02C0880F991F0A94E2F7842BF8
:100130008C9356C18C818130A9F4AAE3B0E0EAE344
:10014000F0E08081482F8B81282F30E081E090E023
:10015000022E02C0880F991F0A94E2F7809584232B
:100160008C933EC18C81823039F5AAE3B0E0EAE39A
:10017000F0E08081482F8B81282F30E081E090E0F3
:1001800002C0880F991F2A95E2F7809584238C93EB
:10019000ABE3B0E0EBE3F0E08081482F8B81282FC8
:1001A00030E081E090E0022E02C0880F991F0A948F
:1001B000E2F7842B8C9314C1198212C18C8188239D
:1001C000A1F4A7E3B0E0E7E3F0E08081482F8B8162
:1001D000282F30E081E090E0022E02C0880F991FA6
:1001E0000A94E2F7842B8C93FBC08C818130A9F4B4
:1001F000A7E3B0E0E7E3F0E08081482F8B81282F70
:1002000030E081E090E0022E02C0880F991F0A942E
:10021000E2F7809584238C93E3C08C81823039F59A
:10022000A7E3B0E0E7E3F0E08081482F8B81282F3F
:1002300030E081E090E002C0880F991F2A95E2F734
:10024000809584238C93A8E3B0E0E8E3F0E080811C
:10025000482F8B81282F30E081E090E0022E02C0F1
:10026000880F991F0A94E2F7842B8C93B9C01982E6
:10027000B7C08C818823A1F4A4E3B0E0E4E3F0E00C
:100280008081482F8B81282F30E081E090E0022E82
:1002900002C0880F991F0A94E2F7842B8C93A0C0A8
:1002A0008C818130A9F4A4E3B0E0E4E3F0E0808144
:1002B000482F8B81282F30E081E090E0022E02C091
:1002C000880F991F0A94E2F7809584238C9388C045
:1002D0008C81823039F5A4E3B0E0E4E3F0E0808182
:1002E000482F8B81282F30E081E090E002C0880FFA
:1002F000991F2A95E2F7809584238C93A5E3B0E0BB
:10030000E5E3F0E08081482F8B81282F30E081E009
:1003100090E0022E02C0880F991F0A94E2F7842B06
:100320008C935EC019825CC08C818823A1F4A1E308
:10033000B0E0E1E3F0E08081482F8B81282F30E0AE
:1003400081E090E0022E02C0880F991F0A94E2F724
:10035000842B8C9345C08C818130A9F4A1E3B0E05B
:10036000E1E3F0E08081482F8B81282F30E081E0AD
:1003700090E0022E02C0880F991F0A94E2F7809540
:1003800084238C932DC08C81823039F5A1E3B0E0B9
:10039000E1E3F0E08081482F8B81282F30E081E07D
:1003A00090E002C0880F991F2A95E2F78095842378
:1003B0008C93A2E3B0E0E2E3F0E08081482F8B81F0
:1003C000282F30E081E090E0022E02C0880F991FB4
:1003D0000A94E2F7842B8C9303C0198201C019821E
:1003E000898126960FB6F894DEBF0FBECDBFCF91A0
:1003F000DF910895DF93CF9300D000D00F92CDB757
:10040000DEB78A836B8381E089838A81843008F038
:1004100096C08B81833008F092C08A81282F30E00B
:100420003D832C838C819D818130910599F12C81B4
:100430003D81223031052CF48C819D81009771F033
:100440007DC02C813D812230310509F43FC08C8173
:100450009D818330910509F455C070C08B8188233C
:1004600029F4EAE3F0E08FEF808369C08B8181306B
:1004700021F4EAE3F0E0108262C08B81823041F423
:10048000EAE3F0E01082EBE3F0E08FEF808357C007
:10049000198255C08B81882329F4E7E3F0E08FEFC0
:1004A00080834DC08B81813021F4E7E3F0E010823E
:1004B00046C08B81823041F4E7E3F0E01082E8E34C
:1004C000F0E08FEF80833BC0198239C08B81882395
:1004D00029F4E4E3F0E08FEF808331C08B81813039
:1004E00021F4E4E3F0E010822AC08B81823041F4F1
:1004F000E4E3F0E01082E5E3F0E08FEF80831FC0DB
:1005000019821DC08B81882329F4E1E3F0E08FEF8D
:10051000808315C08B81813021F4E1E3F0E010820B
:100520000EC08B81823041F4E1E3F0E01082E2E31F
:10053000F0E08FEF808303C0198201C019828981A6
:100540000F900F900F900F900F90CF91DF91089523
:10055000DF93CF9300D000D000D0CDB7DEB78A8331
:100560006B834C8381E089838A81843008F0EFC0FB
:100570008B81883008F0EBC08C81823008F0E7C0B6
:100580008A81282F30E03E832D838D819E818130AA
:10059000910509F448C02D813E81223031052CF4AB
:1005A0008D819E81009771F0D1C02D813E812230D6
:1005B000310509F469C08D819E818330910509F46C
:1005C00094C0C4C08C818130A1F4ABE3B0E0EBE314
:1005D000F0E08081482F8B81282F30E081E090E08F
:1005E000022E02C0880F991F0A94E2F7842B8C9385
:1005F000AEC08C818823A9F4ABE3B0E0EBE3F0E07C
:100600008081482F8B81282F30E081E090E0022EFE
:1006100002C0880F991F0A94E2F7809584238C9377
:1006200096C0198294C08C818130A1F4A8E3B0E017
:10063000E8E3F0E08081482F8B81282F30E081E0D3
:1006400090E0022E02C0880F991F0A94E2F7842BD3
:100650008C937DC08C818823A9F4A8E3B0E0E8E303
:10066000F0E08081482F8B81282F30E081E090E0FE
:10067000022E02C0880F991F0A94E2F78095842306
:100680008C9365C0198263C08C818130A1F4A5E38D
:10069000B0E0E5E3F0E08081482F8B81282F30E047
:1006A00081E090E0022E02C0880F991F0A94E2F7C1
:1006B000842B8C934CC08C818823A9F4A5E3B0E0F3
:1006C000E5E3F0E08081482F8B81282F30E081E046
:1006D00090E0022E02C0880F991F0A94E2F78095DD
:1006E00084238C9334C0198232C08C818130A1F470
:1006F000A2E3B0E0E2E3F0E08081482F8B81282F75
:1007000030E081E090E0022E02C0880F991F0A9429
:10071000E2F7842B8C931BC08C818823A9F4A2E37D
:10072000B0E0E2E3F0E08081482F8B81282F30E0B9
:1007300081E090E0022E02C0880F991F0A94E2F730
:10074000809584238C9303C0198201C0198289810A
:1007500026960FB6F894DEBF0FBECDBFCF91DF91C6
:100760000895DF93CF9300D000D00F92CDB7DEB7BE
:100770008A836B8381E089838A81843008F06BC02F
:100780008B818F3F21F08B81882309F064C08A819F
:10079000282F30E03D832C838C819D818130910511
:1007A00031F12C813D81223031052CF48C819D81E9
:1007B000009761F04FC02C813D812230310541F11D
:1007C0008C819D8183309105A1F144C08B818F3F45
:1007D00029F4EBE3F0E08FEF80833DC08B81882329
:1007E00021F4EBE3F0E0108236C0198234C08B8133
:1007F0008F3F29F4E8E3F0E08FEF80832CC08B81FA
:10080000882321F4E8E3F0E0108225C0198223C098
:100810008B818F3F29F4E5E3F0E08FEF80831BC0ED
:100820008B81882321F4E5E3F0E0108214C0198263
:1008300012C08B818F3F29F4E2E3F0E08FEF8083D9
:100840000AC08B81882321F4E2E3F0E0108203C028
:10085000198201C0198289810F900F900F900F901B
:100860000F90CF91DF910895DF93CF93CDB7DEB78F
:1008700027970FB6F894DEBF0FBECDBF8A836B8378
:100880005D834C8381E089838A81843008F07CC059
:100890008B81883008F078C08C819D81009709F4A5
:1008A00073C08A81282F30E03F832E834E815F8181
:1008B0004130510559F18E819F818230910534F488
:1008C0002E813F812115310569F05CC04E815F8129
:1008D0004230510579F18E819F818330910509F471
:1008E0003DC050C0E9E3F0E08081282F30E08B81EB
:1008F000882F90E0A90102C0559547958A95E2F7A7
:10090000CA018170EC81FD8180833FC0E6E3F0E0A5
:100910008081282F30E08B81882F90E0A90102C0D0
:10092000559547958A95E2F7CA018170EC81FD8162
:1009300080832BC0E3E3F0E08081282F30E08B81BF
:10094000882F90E0A90102C0559547958A95E2F756
:10095000CA018170EC81FD81808317C0E0E3F0E083
:100960008081282F30E08B81882F90E0A90102C080
:10097000559547958A95E2F7CA018170EC81FD8112
:10098000808303C0198201C01982898127960FB61E
:10099000F894DEBF0FBECDBFCF91DF910895DF93F6
:1009A000CF9300D000D000D0CDB7DEB78A837C8350
:1009B0006B8381E089838A81843008F040C08B8119
:1009C0009C810097E1F18A81282F30E03E832D83BE
:1009D0008D819E8181309105E1F02D813E81223013
:1009E00031052CF48D819E81009761F027C02D8107
:1009F0003E8122303105A1F08D819E8183309105A9
:100A0000B1F01CC0E9E3F0E08081EB81FC818083E0
:100A100016C0E6E3F0E08081EB81FC8180830FC0AB
:100A2000E3E3F0E08081EB81FC81808308C0E0E3B8
:100A3000F0E08081EB81FC81808301C01982898193
:100A400026960FB6F894DEBF0FBECDBFCF91DF91D3
:060A50000895F894FFCFA9
:00000001FF
